:03000000020725CF
:0C072500787FE4F6D8FD75812A02076C8D
:10087B00C102C103021500170218003B021A003710
:10088B00020F00000211000002130000010D000115
:10089B000E01C185C101C104011700C1000108008F
:0A08AB0002090000010B00010C001F
:1009F600E5A0541F44A0F5A0E4F58053A01FE5A090
:0D0A0600541F4480F5A07580FF53A01F22EF
:100A2D00438E805389F0758A9A758CA9C28DD28CAC
:050A3D00D2A9D2AF2296
:1007B1001209F6120A2D12099412000E300335C2E5
:1007C100037F851208B68F22C20712091B75150017
:1007D1008F167F831208B68F22C20712091B751864
:1007E100008F197F811208B68F22C20712091B756B
:0907F1001A008F1B1209B780C029
:03000B00020646A4
:10064600C0E0C0F0C083C082C0D075D000C000C07A
:0D06560001C002C003C004C005C006C007FB
:10066300758A9A758CA9050BE50B64647045300196
:1006730042B204F50B30040EE5A0541F4480F5A0EC
:100683007580FE53A01F20040EE5A0541F4480F57F
:10069300A07580FF53A01F0517E517C394194013D6
:1006A300C201751700E5A0541F4480F5A07580FFB3
:1006B30053A01F0508E508C394644008300505D21C
:1006C30003750800050AE50A70020509C394F4E5F9
:1006D3000994014008B202750900750A00050CE58A
:1006E3000CC394C84005D200750C00E50EB4010597
:1006F3001203C28012E50EB402051205048008E558
:070703000EB403031207FA14
:10070A00D007D006D005D004D003D002D001D00043
:0B071A00D0D0D082D083D0F0D0E032ED
:1009B700E516B5101BE515B50F16E51BB51411E5C2
:1009C7001AB5130CE519B51207E518B51102D201CE
:0109D70022FD
:10091B00E52230071575F00A84FEE52275F00A848E
:10092B00AFF0EEC454F04FFD8010C4540FFEE5221F
:0C093B00540FFFEE75F00AA42FFDAF056D
:01094700228D
:100A5600E4FEC297EF1392A3EFC313FFD2970EBE25
:020A660008F096
:010A6800226B
:100A4200C29300C29700D29300120A56AF05120A4F
:040A520056C29322D3
:1008B600E4FDC29300C29700D29300120A56E4FFE9
:1008C600C297EDC313FD30A303430580D2970FBF34
:1008D60008EEC29300C29700D29700C2A300D2A32B
:0308E60000AF055B
:0108E90022EC
:10099400E4FD7F8E120A427D237F84120A427D5930
:1009A4007F82120A427D557F80120A427D807F8EAB
:0309B400020A42F2
:040A69007F057E0087
:0B0A6D00EF1FAC0670011E4C70F6225B
:0209D800AD0769
:1009DA00E4FBC294ED139294120A69D294EDC31304
:0C09EA00FD0BBB08ED7F057E00020A6DCE
:100A1300E4FBC294EDC313FDD294309403430580E9
:090A2300120A690BBB08EBAF05D8
:010A2C0022A7
:10094800C206D2947F0C7E00120A6DC2947F507E3C
:1009580000120A6DD2947F0A7E00120A6DA2949248
:0609680006120A69A20656
:01096E002266
:1008EA001209487FCC1209D87F441209D8120A7813
:1008FA001209487FCC1209D87FBE1209D8120A13EE
:10090A00AA07120A13EFC454F0FFEAC4540F4FFFA8
:01091A0022BA
:0A0A780000007F067E5DDEFEDFFC5D
:010A82002251
:10000E0020B06620B063300102C201050DE50E641A
:10001E00016006750E01E4F50DE50DB40403E4F57B
:10002E000D30B0FDE50D6004C205803DE4FD7F8E10
:10003E00120A42D20785162212091BAD077F8412BF
:10004E000A42D20785192212091BAD077F82120AB6
:10005E0042D207851B2212091BAD077F80120A426E
:10006E007D807F8E120A42D20520B12120B11E3032
:10007E000102C201050DE50E64026006750E02E472
:10008E00F50DE50DB40403E4F50D30B1FD30B2030A
:10009E0002015230B203020152300102C201E50EDA
:1000AE006401704EE50DB401140516E516700205D7
:1000BE0015641845157036F515F5168030E50DB436
:1000CE0002140519E51970020518643C4518701DD7
:1000DE00F518F5198017E50DB40312051BE51B7015
:1000EE0002051A643C451A7004F51AF51B20B25429
:1000FE0080FBE50E6402704CE50DB401140510E5AD
:10010E00107002050F6418450F7036F50FF510804C
:10011E0030E50DB402140512E51270020511643CAF
:10012E004511701DF511F5128017E50DB40312057A
:10013E0014E51470020513643C45137004F513F5B1
:10014E001430B2FD30B30302024030B3030202405A
:10015E00E50EB40107E50D7003750E03300102C202
:10016E0001E50E64017062E50DB4011DE51615166C
:10017E0070021515C3E515648094804003020235A4
:10018E00751500751617020235E50DB4021CE5193A
:10019E00151970021518C3E5186480948040030287
:1001AE00023575180075193B807DE50D6403707777
:1001BE00E51B151B7002151AC3E51A648094805056
:1001CE0066751A00751B3B805EE50E64027058E57D
:1001DE000DB40119E51015107002150FC3E50F646B
:1001EE008094805042750F00751017803AE50DB45B
:1001FE000219E512151270021511C3E511648094EF
:10020E0080502475110075123B801CE50DB4031748
:10021E00E514151470021513C3E513648094805011
:10022E000675130075143B30B3FDE50EB40303756C
:03023E000E01228C
:10096F00C0F9A4B0999282F88090BFFFC600000032
:10097F000000000000000000000000000000000068
:05098F00000000000063
:03083F00F8E6FDDB
:10084200E5A0541F44E0F5A07580FF53A01FE5A06A
:10085200541F44C0F5A07401A807088002C333D80E
:10086200FCF58053A01FE5A0541F44E0F5A0ED90D5
:09087200096F93F58053A01F22C9
:1003C20078237C007D007BFF7A09797C7E007F08A0
:1003D200120311E50D701BAE15AF16FC7D0A120358
:1003E200378F23AE15AF167C007D0A1203378D249A
:1003F200802AE50D6401704330021BAE15AF16FC76
:100402007D0A1203378F23AE15AF167C007D0A12C8
:1004120003378D24800675230B75240B75250AAED0
:1004220018AF197C007D0A1203378F26AE18AF1958
:100432007C007D0A1203378D278047E50D64027028
:1004420046AE15AF16FC7D0A1203378F23AE15AFE9
:10045200167C007D0A1203378D2475250A30021C92
:10046200AE18AF197C007D0A1203378F26AE18AF83
:10047200197C007D0A1203378D27800675260B75BD
:10048200270B75280A8042E50D6403705EAE15AF36
:1004920016FC7D0A1203378F23AE15AF167C007D42
:1004A2000A1203378D2475250AAE18AF197C007D18
:1004B2000A1203378F26AE18AF197C007D0A120389
:1004C200378D2775280A30021CAE1AAF1B7C007DBF
:1004D2000A1203378F29AE1AAF1B7C007D0A120362
:1004E200378D2A800675290B752A0B7423251CAFBC
:1004F2001C12083FE51CC394074004E4F51C2205C6
:010502001CDC
:0105030022D5
:1005040078237C007D007BFF7A0979847E007F0854
:10051400120311E50D701BAE0FAF10FC7D0A120320
:10052400378F23AE0FAF107C007D0A1203378D2462
:10053400802AE50D6401704330021BAE0FAF10FC3E
:100544007D0A1203378F23AE0FAF107C007D0A1291
:1005540003378D24800675230B75240B75250AAE8D
:1005640011AF127C007D0A1203378F26AE11AF1231
:100574007C007D0A1203378D278047E50D640270E5
:1005840046AE0FAF10FC7D0A1203378F23AE0FAFB8
:10059400107C007D0A1203378D2475250A30021C55
:1005A400AE11AF127C007D0A1203378F26AE11AF55
:1005B400127C007D0A1203378D27800675260B7581
:1005C400270B75280A8042E50D6403705EAE0FAFF9
:1005D40010FC7D0A1203378F23AE0FAF107C007D11
:1005E4000A1203378D2475250AAE11AF127C007DE3
:1005F4000A1203378F26AE11AF127C007D0A120354
:10060400378D2775280A30021CAE13AF147C007D89
:100614000A1203378F29AE13AF147C007D0A12032C
:10062400378D2A800675290B752A0B7423251DAF77
:100634001D12083FE51DC394074004E4F51D22057F
:010644001D98
:010645002292
:1007FA0078237C007D007BFF7A09798C7E007F0854
:10080A0012031175230B75240B75250B75260B75B1
:10081A00270B752802752901752A0C7423251EF8E1
:10082A00E6FDAF1E120842E51EC394074004E4F534
:04083A001E22051E57
:01083E002297
:100731000207B1E493A3F8E493A34003F68001F226
:1007410008DFF48029E493A3F85407240CC8C333C9
:10075100C4540F4420C8834004F456800146F6DF98
:10076100E4800B010204081020408090087BE47EA5
:10077100019360BCA3FF543F30E509541FFEE4938D
:10078100A360010ECF54C025E060A840B8E493A354
:10079100FAE493A3F8E493A3C8C582C8CAC583CA7F
:1007A100F0A3C8C582C8CAC583CADFE9DEE780BE37
:0108B5000042
:10024100E709F608DFFA8046E709F208DFFA803E9F
:1002510088828C83E709F0A3DFFA8032E309F6088C
:10026100DFFA8078E309F208DFFA807088828C83F4
:10027100E309F0A3DFFA806489828A83E0A3F608A8
:10028100DFFA805889828A83E0A3F208DFFA804C82
:1002910080D280FA80C680D4806980F28033801059
:1002A10080A680EA809A80A880DA80E280CA8033C2
:1002B10089828A83ECFAE493A3C8C582C8CCC5833A
:1002C100CCF0A3C8C582C8CCC583CCDFE9DEE7800A
:1002D1000D89828A83E493A3F608DFF9ECFAA9F089
:1002E100EDFB2289828A83ECFAE0A3C8C582C8CCDF
:1002F100C583CCF0A3C8C582C8CCC583CCDFEADEF8
:10030100E880DB89828A83E493A3F208DFF980CC59
:1003110088F0EF60010E4E60C388F0ED2402B40452
:100321000050B9F582EB2402B4040050AF232345F9
:060331008223900291738B
:10033700C2D5EC30E709B2D5E4C39DFDE49CFCEEE1
:1003470030E715B2D5E4C39FFFE49EFE12036DC3E9
:10035700E49DFDE49CFC800312036D30D507C3E4E4
:060367009FFFE49EFE2250
:10036D00BC000BBE0029EF8DF084FFADF022E4CC74
:10037D00F875F008EF2FFFEE33FEEC33FCEE9DEC3D
:10038D00984005FCEE9DFE0FD5F0E9E4CEFD22ED83
:10039D00F8F5F0EE8420D21CFEADF075F008EF2FCD
:1003AD00FFED33FD4007985006D5F0F222C398FDBE
:0503BD000FD5F0EA225B
:00000001FF
